{
  "_format": "hh-sol-artifact-1",
  "contractName": "NFTLazyMint",
  "sourceName": "contracts/NFTmint.sol",
  "abi": [
    {
      "inputs": [
        {
          "internalType": "address payable",
          "name": "minter",
          "type": "address"
        }
      ],
      "stateMutability": "nonpayable",
      "type": "constructor"
    },
    {
      "anonymous": false,
      "inputs": [
        {
          "indexed": true,
          "internalType": "address",
          "name": "owner",
          "type": "address"
        },
        {
          "indexed": true,
          "internalType": "address",
          "name": "approved",
          "type": "address"
        },
        {
          "indexed": true,
          "internalType": "uint256",
          "name": "tokenId",
          "type": "uint256"
        }
      ],
      "name": "Approval",
      "type": "event"
    },
    {
      "anonymous": false,
      "inputs": [
        {
          "indexed": true,
          "internalType": "address",
          "name": "owner",
          "type": "address"
        },
        {
          "indexed": true,
          "internalType": "address",
          "name": "operator",
          "type": "address"
        },
        {
          "indexed": false,
          "internalType": "bool",
          "name": "approved",
          "type": "bool"
        }
      ],
      "name": "ApprovalForAll",
      "type": "event"
    },
    {
      "anonymous": false,
      "inputs": [
        {
          "indexed": true,
          "internalType": "bytes32",
          "name": "role",
          "type": "bytes32"
        },
        {
          "indexed": true,
          "internalType": "bytes32",
          "name": "previousAdminRole",
          "type": "bytes32"
        },
        {
          "indexed": true,
          "internalType": "bytes32",
          "name": "newAdminRole",
          "type": "bytes32"
        }
      ],
      "name": "RoleAdminChanged",
      "type": "event"
    },
    {
      "anonymous": false,
      "inputs": [
        {
          "indexed": true,
          "internalType": "bytes32",
          "name": "role",
          "type": "bytes32"
        },
        {
          "indexed": true,
          "internalType": "address",
          "name": "account",
          "type": "address"
        },
        {
          "indexed": true,
          "internalType": "address",
          "name": "sender",
          "type": "address"
        }
      ],
      "name": "RoleGranted",
      "type": "event"
    },
    {
      "anonymous": false,
      "inputs": [
        {
          "indexed": true,
          "internalType": "bytes32",
          "name": "role",
          "type": "bytes32"
        },
        {
          "indexed": true,
          "internalType": "address",
          "name": "account",
          "type": "address"
        },
        {
          "indexed": true,
          "internalType": "address",
          "name": "sender",
          "type": "address"
        }
      ],
      "name": "RoleRevoked",
      "type": "event"
    },
    {
      "anonymous": false,
      "inputs": [
        {
          "indexed": true,
          "internalType": "address",
          "name": "from",
          "type": "address"
        },
        {
          "indexed": true,
          "internalType": "address",
          "name": "to",
          "type": "address"
        },
        {
          "indexed": true,
          "internalType": "uint256",
          "name": "tokenId",
          "type": "uint256"
        }
      ],
      "name": "Transfer",
      "type": "event"
    },
    {
      "inputs": [],
      "name": "BURNER_ROLE",
      "outputs": [
        {
          "internalType": "bytes32",
          "name": "",
          "type": "bytes32"
        }
      ],
      "stateMutability": "view",
      "type": "function"
    },
    {
      "inputs": [],
      "name": "DEFAULT_ADMIN_ROLE",
      "outputs": [
        {
          "internalType": "bytes32",
          "name": "",
          "type": "bytes32"
        }
      ],
      "stateMutability": "view",
      "type": "function"
    },
    {
      "inputs": [],
      "name": "MINTER_ROLE",
      "outputs": [
        {
          "internalType": "bytes32",
          "name": "",
          "type": "bytes32"
        }
      ],
      "stateMutability": "view",
      "type": "function"
    },
    {
      "inputs": [
        {
          "components": [
            {
              "internalType": "uint256",
              "name": "tokenId",
              "type": "uint256"
            },
            {
              "internalType": "uint256",
              "name": "minPrice",
              "type": "uint256"
            },
            {
              "internalType": "string",
              "name": "uri",
              "type": "string"
            },
            {
              "internalType": "bytes",
              "name": "signature",
              "type": "bytes"
            }
          ],
          "internalType": "struct NFTLazyMint.NFTVoucher",
          "name": "voucher",
          "type": "tuple"
        }
      ],
      "name": "_hash",
      "outputs": [
        {
          "internalType": "bytes32",
          "name": "",
          "type": "bytes32"
        }
      ],
      "stateMutability": "view",
      "type": "function"
    },
    {
      "inputs": [
        {
          "components": [
            {
              "internalType": "uint256",
              "name": "tokenId",
              "type": "uint256"
            },
            {
              "internalType": "uint256",
              "name": "minPrice",
              "type": "uint256"
            },
            {
              "internalType": "string",
              "name": "uri",
              "type": "string"
            },
            {
              "internalType": "bytes",
              "name": "signature",
              "type": "bytes"
            }
          ],
          "internalType": "struct NFTLazyMint.NFTVoucher",
          "name": "voucher",
          "type": "tuple"
        },
        {
          "internalType": "bytes",
          "name": "signature",
          "type": "bytes"
        }
      ],
      "name": "_verify",
      "outputs": [
        {
          "internalType": "address",
          "name": "",
          "type": "address"
        }
      ],
      "stateMutability": "view",
      "type": "function"
    },
    {
      "inputs": [
        {
          "internalType": "address",
          "name": "to",
          "type": "address"
        },
        {
          "internalType": "uint256",
          "name": "tokenId",
          "type": "uint256"
        }
      ],
      "name": "approve",
      "outputs": [],
      "stateMutability": "nonpayable",
      "type": "function"
    },
    {
      "inputs": [
        {
          "internalType": "address",
          "name": "owner",
          "type": "address"
        }
      ],
      "name": "balanceOf",
      "outputs": [
        {
          "internalType": "uint256",
          "name": "",
          "type": "uint256"
        }
      ],
      "stateMutability": "view",
      "type": "function"
    },
    {
      "inputs": [],
      "name": "canWithdraw",
      "outputs": [
        {
          "internalType": "uint256",
          "name": "",
          "type": "uint256"
        }
      ],
      "stateMutability": "view",
      "type": "function"
    },
    {
      "inputs": [
        {
          "internalType": "uint256",
          "name": "tokenId",
          "type": "uint256"
        }
      ],
      "name": "getApproved",
      "outputs": [
        {
          "internalType": "address",
          "name": "",
          "type": "address"
        }
      ],
      "stateMutability": "view",
      "type": "function"
    },
    {
      "inputs": [
        {
          "internalType": "bytes32",
          "name": "role",
          "type": "bytes32"
        }
      ],
      "name": "getRoleAdmin",
      "outputs": [
        {
          "internalType": "bytes32",
          "name": "",
          "type": "bytes32"
        }
      ],
      "stateMutability": "view",
      "type": "function"
    },
    {
      "inputs": [
        {
          "internalType": "bytes32",
          "name": "role",
          "type": "bytes32"
        },
        {
          "internalType": "address",
          "name": "account",
          "type": "address"
        }
      ],
      "name": "grantRole",
      "outputs": [],
      "stateMutability": "nonpayable",
      "type": "function"
    },
    {
      "inputs": [
        {
          "internalType": "bytes32",
          "name": "role",
          "type": "bytes32"
        },
        {
          "internalType": "address",
          "name": "account",
          "type": "address"
        }
      ],
      "name": "hasRole",
      "outputs": [
        {
          "internalType": "bool",
          "name": "",
          "type": "bool"
        }
      ],
      "stateMutability": "view",
      "type": "function"
    },
    {
      "inputs": [
        {
          "internalType": "address",
          "name": "owner",
          "type": "address"
        },
        {
          "internalType": "address",
          "name": "operator",
          "type": "address"
        }
      ],
      "name": "isApprovedForAll",
      "outputs": [
        {
          "internalType": "bool",
          "name": "",
          "type": "bool"
        }
      ],
      "stateMutability": "view",
      "type": "function"
    },
    {
      "inputs": [],
      "name": "mpadress",
      "outputs": [
        {
          "internalType": "address",
          "name": "",
          "type": "address"
        }
      ],
      "stateMutability": "view",
      "type": "function"
    },
    {
      "inputs": [],
      "name": "name",
      "outputs": [
        {
          "internalType": "string",
          "name": "",
          "type": "string"
        }
      ],
      "stateMutability": "view",
      "type": "function"
    },
    {
      "inputs": [],
      "name": "owner",
      "outputs": [
        {
          "internalType": "address",
          "name": "",
          "type": "address"
        }
      ],
      "stateMutability": "view",
      "type": "function"
    },
    {
      "inputs": [
        {
          "internalType": "uint256",
          "name": "tokenId",
          "type": "uint256"
        }
      ],
      "name": "ownerOf",
      "outputs": [
        {
          "internalType": "address",
          "name": "",
          "type": "address"
        }
      ],
      "stateMutability": "view",
      "type": "function"
    },
    {
      "inputs": [
        {
          "internalType": "bytes32",
          "name": "_ethSignedMessageHash",
          "type": "bytes32"
        },
        {
          "internalType": "bytes",
          "name": "_signature",
          "type": "bytes"
        }
      ],
      "name": "recoverSigner",
      "outputs": [
        {
          "internalType": "address",
          "name": "",
          "type": "address"
        }
      ],
      "stateMutability": "pure",
      "type": "function"
    },
    {
      "inputs": [
        {
          "internalType": "address",
          "name": "redeemer",
          "type": "address"
        },
        {
          "components": [
            {
              "internalType": "uint256",
              "name": "tokenId",
              "type": "uint256"
            },
            {
              "internalType": "uint256",
              "name": "minPrice",
              "type": "uint256"
            },
            {
              "internalType": "string",
              "name": "uri",
              "type": "string"
            },
            {
              "internalType": "bytes",
              "name": "signature",
              "type": "bytes"
            }
          ],
          "internalType": "struct NFTLazyMint.NFTVoucher",
          "name": "voucher",
          "type": "tuple"
        },
        {
          "internalType": "bytes",
          "name": "signature",
          "type": "bytes"
        }
      ],
      "name": "redeem",
      "outputs": [
        {
          "internalType": "uint256",
          "name": "",
          "type": "uint256"
        }
      ],
      "stateMutability": "payable",
      "type": "function"
    },
    {
      "inputs": [
        {
          "internalType": "bytes32",
          "name": "role",
          "type": "bytes32"
        },
        {
          "internalType": "address",
          "name": "account",
          "type": "address"
        }
      ],
      "name": "renounceRole",
      "outputs": [],
      "stateMutability": "nonpayable",
      "type": "function"
    },
    {
      "inputs": [
        {
          "internalType": "bytes32",
          "name": "role",
          "type": "bytes32"
        },
        {
          "internalType": "address",
          "name": "account",
          "type": "address"
        }
      ],
      "name": "revokeRole",
      "outputs": [],
      "stateMutability": "nonpayable",
      "type": "function"
    },
    {
      "inputs": [
        {
          "internalType": "address",
          "name": "from",
          "type": "address"
        },
        {
          "internalType": "address",
          "name": "to",
          "type": "address"
        },
        {
          "internalType": "uint256",
          "name": "tokenId",
          "type": "uint256"
        }
      ],
      "name": "safeTransferFrom",
      "outputs": [],
      "stateMutability": "nonpayable",
      "type": "function"
    },
    {
      "inputs": [
        {
          "internalType": "address",
          "name": "from",
          "type": "address"
        },
        {
          "internalType": "address",
          "name": "to",
          "type": "address"
        },
        {
          "internalType": "uint256",
          "name": "tokenId",
          "type": "uint256"
        },
        {
          "internalType": "bytes",
          "name": "data",
          "type": "bytes"
        }
      ],
      "name": "safeTransferFrom",
      "outputs": [],
      "stateMutability": "nonpayable",
      "type": "function"
    },
    {
      "inputs": [
        {
          "internalType": "address",
          "name": "operator",
          "type": "address"
        },
        {
          "internalType": "bool",
          "name": "approved",
          "type": "bool"
        }
      ],
      "name": "setApprovalForAll",
      "outputs": [],
      "stateMutability": "nonpayable",
      "type": "function"
    },
    {
      "inputs": [
        {
          "internalType": "bytes",
          "name": "sig",
          "type": "bytes"
        }
      ],
      "name": "splitSignature",
      "outputs": [
        {
          "internalType": "bytes32",
          "name": "r",
          "type": "bytes32"
        },
        {
          "internalType": "bytes32",
          "name": "s",
          "type": "bytes32"
        },
        {
          "internalType": "uint8",
          "name": "v",
          "type": "uint8"
        }
      ],
      "stateMutability": "pure",
      "type": "function"
    },
    {
      "inputs": [
        {
          "internalType": "bytes4",
          "name": "interfaceId",
          "type": "bytes4"
        }
      ],
      "name": "supportsInterface",
      "outputs": [
        {
          "internalType": "bool",
          "name": "",
          "type": "bool"
        }
      ],
      "stateMutability": "view",
      "type": "function"
    },
    {
      "inputs": [],
      "name": "symbol",
      "outputs": [
        {
          "internalType": "string",
          "name": "",
          "type": "string"
        }
      ],
      "stateMutability": "view",
      "type": "function"
    },
    {
      "inputs": [
        {
          "internalType": "uint256",
          "name": "tokenId",
          "type": "uint256"
        }
      ],
      "name": "tokenURI",
      "outputs": [
        {
          "internalType": "string",
          "name": "",
          "type": "string"
        }
      ],
      "stateMutability": "view",
      "type": "function"
    },
    {
      "inputs": [
        {
          "internalType": "address",
          "name": "from",
          "type": "address"
        },
        {
          "internalType": "address",
          "name": "to",
          "type": "address"
        },
        {
          "internalType": "uint256",
          "name": "tokenId",
          "type": "uint256"
        }
      ],
      "name": "transferFrom",
      "outputs": [],
      "stateMutability": "nonpayable",
      "type": "function"
    }
  ],
  "bytecode": "0x6101406040523480156200001257600080fd5b5060405162002c7f38038062002c7f833981016040819052620000359162000322565b604080518082018252600781526613185e9e53919560ca1b6020808301919091528251808401845260048152634c617a7960e01b8183015283518085018552600f81526e2630bd3ca7232a16ab37bab1b432b960891b818401908152855180870190965260018652603160f81b93860193909352805190922060e08190527fc89efdaa54c0f20c7adf612882df0950f5a951637e0307cdcb4c672f298b8bc66101008190524660a052939491937f8b73c3c69bb8fe3d512ecc4cf759cc79239f7b179b0ffacaa9a75d522b39400f620001538184846040805160208101859052908101839052606081018290524660808201523060a082015260009060c0016040516020818303038152906040528051906020012090509392505050565b6080523060601b60c05261012052505083516200017a92506001915060208501906200027c565b508051620001909060029060208401906200027c565b505050620001c57f9f2df0fed2c77648de5860a4cc508cd0818c85b8b8a1ab4ceeef8d981c8956a682620001cc60201b60201c565b506200038f565b620001d88282620001dc565b5050565b6000828152602081815260408083206001600160a01b038516845290915290205460ff16620001d8576000828152602081815260408083206001600160a01b03851684529091529020805460ff19166001179055620002383390565b6001600160a01b0316816001600160a01b0316837f2f8788117e7eff1d82e926ec794901d17c78024a50270940304540a733656f0d60405160405180910390a45050565b8280546200028a9062000352565b90600052602060002090601f016020900481019282620002ae5760008555620002f9565b82601f10620002c957805160ff1916838001178555620002f9565b82800160010185558215620002f9579182015b82811115620002f9578251825591602001919060010190620002dc565b50620003079291506200030b565b5090565b5b808211156200030757600081556001016200030c565b60006020828403121562000334578081fd5b81516001600160a01b03811681146200034b578182fd5b9392505050565b600181811c908216806200036757607f821691505b602082108114156200038957634e487b7160e01b600052602260045260246000fd5b50919050565b60805160a05160c05160601c60e051610100516101205161289d620003e26000396000611aa101526000611af001526000611acb01526000611a2401526000611a4e01526000611a78015261289d6000f3fe6080604052600436106101c25760003560e01c806370a08231116100f7578063a22cb46511610095578063c87b56dd11610064578063c87b56dd14610547578063d539139314610567578063d547741f1461059b578063e985e9c5146105bb57600080fd5b8063a22cb465146104a7578063a7bb5803146104c7578063b51459fe14610505578063b88d4fde1461052757600080fd5b806392cc16eb116100d157806392cc16eb1461043d57806395d89b411461045d57806397aba7f914610472578063a217fddf1461049257600080fd5b806370a08231146103dd5780638da5cb5b146103fd57806391d148541461041d57600080fd5b8063282c51f311610164578063424d39971161013e578063424d39971461036a57806342842e0e1461037d5780634c7193171461039d5780636352211e146103bd57600080fd5b8063282c51f3146102f65780632f2ff15d1461032a57806336568abe1461034a57600080fd5b806309219b72116101a057806309219b7214610256578063095ea7b31461027657806323b872dd14610298578063248a9ca3146102b857600080fd5b806301ffc9a7146101c757806306fdde03146101fc578063081812fc1461021e575b600080fd5b3480156101d357600080fd5b506101e76101e2366004612411565b610604565b60405190151581526020015b60405180910390f35b34801561020857600080fd5b50610211610624565b6040516101f39190612623565b34801561022a57600080fd5b5061023e610239366004612392565b6106b6565b6040516001600160a01b0390911681526020016101f3565b34801561026257600080fd5b5061023e6102713660046124af565b6106dd565b34801561028257600080fd5b50610296610291366004612369565b610754565b005b3480156102a457600080fd5b506102966102b336600461221d565b61086f565b3480156102c457600080fd5b506102e86102d3366004612392565b60009081526020819052604090206001015490565b6040519081526020016101f3565b34801561030257600080fd5b506102e87f3c11d16cbaffd01df69ce1c404f6340ee057498f5f00246190ea54220576a84881565b34801561033657600080fd5b506102966103453660046123aa565b6108a0565b34801561035657600080fd5b506102966103653660046123aa565b6108c5565b6102e86103783660046122f8565b610943565b34801561038957600080fd5b5061029661039836600461221d565b610aff565b3480156103a957600080fd5b506102e86103b836600461247c565b610b1a565b3480156103c957600080fd5b5061023e6103d8366004612392565b610bab565b3480156103e957600080fd5b506102e86103f83660046121d1565b610c0b565b34801561040957600080fd5b50600b5461023e906001600160a01b031681565b34801561042957600080fd5b506101e76104383660046123aa565b610c91565b34801561044957600080fd5b5060085461023e906001600160a01b031681565b34801561046957600080fd5b50610211610cba565b34801561047e57600080fd5b5061023e61048d3660046123cc565b610cc9565b34801561049e57600080fd5b506102e8600081565b3480156104b357600080fd5b506102966104c23660046122be565b610d48565b3480156104d357600080fd5b506104e76104e2366004612449565b610d53565b60408051938452602084019290925260ff16908201526060016101f3565b34801561051157600080fd5b50336000908152600a60205260409020546102e8565b34801561053357600080fd5b50610296610542366004612258565b610dc7565b34801561055357600080fd5b50610211610562366004612392565b610dff565b34801561057357600080fd5b506102e87f9f2df0fed2c77648de5860a4cc508cd0818c85b8b8a1ab4ceeef8d981c8956a681565b3480156105a757600080fd5b506102966105b63660046123aa565b610f08565b3480156105c757600080fd5b506101e76105d63660046121eb565b6001600160a01b03918216600090815260066020908152604080832093909416825291909152205460ff1690565b600061060f82610f2d565b8061061e575061061e82610f68565b92915050565b606060018054610633906127f0565b80601f016020809104026020016040519081016040528092919081815260200182805461065f906127f0565b80156106ac5780601f10610681576101008083540402835291602001916106ac565b820191906000526020600020905b81548152906001019060200180831161068f57829003601f168201915b5050505050905090565b60006106c182610f9d565b506000908152600560205260409020546001600160a01b031690565b6000806106e984610b1a565b905061074c83610746836040517f19457468657265756d205369676e6564204d6573736167653a0a3332000000006020820152603c8101829052600090605c01604051602081830303815290604052805190602001209050919050565b90610fff565b949350505050565b600061075f82610bab565b9050806001600160a01b0316836001600160a01b031614156107d25760405162461bcd60e51b815260206004820152602160248201527f4552433732313a20617070726f76616c20746f2063757272656e74206f776e656044820152603960f91b60648201526084015b60405180910390fd5b336001600160a01b03821614806107ee57506107ee81336105d6565b6108605760405162461bcd60e51b815260206004820152603d60248201527f4552433732313a20617070726f76652063616c6c6572206973206e6f7420746f60448201527f6b656e206f776e6572206f7220617070726f76656420666f7220616c6c00000060648201526084016107c9565b61086a8383611023565b505050565b6108793382611091565b6108955760405162461bcd60e51b81526004016107c990612636565b61086a83838361110f565b6000828152602081905260409020600101546108bb81611280565b61086a838361128a565b6001600160a01b03811633146109355760405162461bcd60e51b815260206004820152602f60248201527f416363657373436f6e74726f6c3a2063616e206f6e6c792072656e6f756e636560448201526e103937b632b9903337b91039b2b63360891b60648201526084016107c9565b61093f828261130e565b5050565b60008061095084846106dd565b905061097c7f9f2df0fed2c77648de5860a4cc508cd0818c85b8b8a1ab4ceeef8d981c8956a633610c91565b6109b95760405162461bcd60e51b815260206004820152600e60248201526d24b73b30b634b21039b4b3b732b960911b60448201526064016107c9565b6001600160a01b0381163314610a115760405162461bcd60e51b815260206004820181905260248201527f5369676e657220646f6573206e6f74206d61746368206d73672e73656e64657260448201526064016107c9565b8360200135341015610a655760405162461bcd60e51b815260206004820152601c60248201527f496e73756666696369656e742066756e647320746f2072656465656d0000000060448201526064016107c9565b610a70818535611373565b610abc8435610a82604087018761271a565b8080601f01602080910402602001604051908101604052809392919081815260200183838082843760009201919091525061150c92505050565b610ac88186863561110f565b6001600160a01b0381166000908152600a602052604081208054349290610af090849061275f565b90915550509235949350505050565b61086a83838360405180602001604052806000815250610dc7565b600061061e7f6316f9ddd4d59a364f3b95c26bab9d392c3380ace0fff15e91ed76f0d8bcd15a83356020850135610b54604087018761271a565b604051610b62929190612532565b604051908190038120610b909493929160200193845260208401929092526040830152606082015260800190565b604051602081830303815290604052805190602001206115a6565b6000818152600360205260408120546001600160a01b03168061061e5760405162461bcd60e51b8152602060048201526018602482015277115490cdcc8c4e881a5b9d985b1a59081d1bdad95b88125160421b60448201526064016107c9565b60006001600160a01b038216610c755760405162461bcd60e51b815260206004820152602960248201527f4552433732313a2061646472657373207a65726f206973206e6f7420612076616044820152683634b21037bbb732b960b91b60648201526084016107c9565b506001600160a01b031660009081526004602052604090205490565b6000918252602082815260408084206001600160a01b0393909316845291905290205460ff1690565b606060028054610633906127f0565b600080600080610cd885610d53565b6040805160008152602081018083528b905260ff8316918101919091526060810184905260808101839052929550909350915060019060a0016020604051602081039080840390855afa158015610d33573d6000803e3d6000fd5b5050604051601f190151979650505050505050565b61093f3383836115f4565b60008060008351604114610da95760405162461bcd60e51b815260206004820152601860248201527f696e76616c6964207369676e6174757265206c656e677468000000000000000060448201526064016107c9565b50505060208101516040820151606090920151909260009190911a90565b610dd13383611091565b610ded5760405162461bcd60e51b81526004016107c990612636565b610df9848484846116c3565b50505050565b6060610e0a82610f9d565b60008281526007602052604081208054610e23906127f0565b80601f0160208091040260200160405190810160405280929190818152602001828054610e4f906127f0565b8015610e9c5780601f10610e7157610100808354040283529160200191610e9c565b820191906000526020600020905b815481529060010190602001808311610e7f57829003601f168201915b505050505090506000610eba60408051602081019091526000815290565b9050805160001415610ecd575092915050565b815115610eff578082604051602001610ee7929190612542565b60405160208183030381529060405292505050919050565b61074c846116f6565b600082815260208190526040902060010154610f2381611280565b61086a838361130e565b60006001600160e01b031982166380ac58cd60e01b148061060f57506001600160e01b03198216635b5e139f60e01b148061061e575061061e825b60006001600160e01b03198216637965db0b60e01b148061061e57506301ffc9a760e01b6001600160e01b031983161461061e565b6000818152600360205260409020546001600160a01b0316610ffc5760405162461bcd60e51b8152602060048201526018602482015277115490cdcc8c4e881a5b9d985b1a59081d1bdad95b88125160421b60448201526064016107c9565b50565b600080600061100e858561176a565b9150915061101b816117b0565b509392505050565b600081815260056020526040902080546001600160a01b0319166001600160a01b038416908117909155819061105882610bab565b6001600160a01b03167f8c5be1e5ebec7d5bd14f71427d1e84f3dd0314c0f7b2291e5b200ac8c7c3b92560405160405180910390a45050565b60008061109d83610bab565b9050806001600160a01b0316846001600160a01b031614806110e457506001600160a01b0380821660009081526006602090815260408083209388168352929052205460ff165b8061074c5750836001600160a01b03166110fd846106b6565b6001600160a01b031614949350505050565b826001600160a01b031661112282610bab565b6001600160a01b0316146111485760405162461bcd60e51b81526004016107c9906126d5565b6001600160a01b0382166111aa5760405162461bcd60e51b8152602060048201526024808201527f4552433732313a207472616e7366657220746f20746865207a65726f206164646044820152637265737360e01b60648201526084016107c9565b6111b78383836001611936565b826001600160a01b03166111ca82610bab565b6001600160a01b0316146111f05760405162461bcd60e51b81526004016107c9906126d5565b600081815260056020908152604080832080546001600160a01b03199081169091556001600160a01b0387811680865260048552838620805460001901905590871680865283862080546001019055868652600390945282852080549092168417909155905184937fddf252ad1be2c89b69c2b068fc378daa952ba7f163c4a11628f55a4df523b3ef91a4505050565b610ffc81336119be565b6112948282610c91565b61093f576000828152602081815260408083206001600160a01b03851684529091529020805460ff191660011790556112ca3390565b6001600160a01b0316816001600160a01b0316837f2f8788117e7eff1d82e926ec794901d17c78024a50270940304540a733656f0d60405160405180910390a45050565b6113188282610c91565b1561093f576000828152602081815260408083206001600160a01b0385168085529252808320805460ff1916905551339285917ff6391f5c32d9c69d2a47ea670b442974b53935d1edc7fd64eb21e047a839171b9190a45050565b6001600160a01b0382166113c95760405162461bcd60e51b815260206004820181905260248201527f4552433732313a206d696e7420746f20746865207a65726f206164647265737360448201526064016107c9565b6000818152600360205260409020546001600160a01b03161561142e5760405162461bcd60e51b815260206004820152601c60248201527f4552433732313a20746f6b656e20616c7265616479206d696e7465640000000060448201526064016107c9565b61143c600083836001611936565b6000818152600360205260409020546001600160a01b0316156114a15760405162461bcd60e51b815260206004820152601c60248201527f4552433732313a20746f6b656e20616c7265616479206d696e7465640000000060448201526064016107c9565b6001600160a01b038216600081815260046020908152604080832080546001019055848352600390915280822080546001600160a01b0319168417905551839291907fddf252ad1be2c89b69c2b068fc378daa952ba7f163c4a11628f55a4df523b3ef908290a45050565b6000828152600360205260409020546001600160a01b03166115875760405162461bcd60e51b815260206004820152602e60248201527f45524337323155524953746f726167653a2055524920736574206f66206e6f6e60448201526d32bc34b9ba32b73a103a37b5b2b760911b60648201526084016107c9565b6000828152600760209081526040909120825161086a9284019061207e565b600061061e6115b3611a17565b8360405161190160f01b6020820152602281018390526042810182905260009060620160405160208183030381529060405280519060200120905092915050565b816001600160a01b0316836001600160a01b031614156116565760405162461bcd60e51b815260206004820152601960248201527f4552433732313a20617070726f766520746f2063616c6c65720000000000000060448201526064016107c9565b6001600160a01b03838116600081815260066020908152604080832094871680845294825291829020805460ff191686151590811790915591519182527f17307eab39ab6107e8899845ad3d59bd9653f200f220920489ca2b5937696c31910160405180910390a3505050565b6116ce84848461110f565b6116da84848484611b3e565b610df95760405162461bcd60e51b81526004016107c990612683565b606061170182610f9d565b600061171860408051602081019091526000815290565b905060008151116117385760405180602001604052806000815250611763565b8061174284611c4b565b604051602001611753929190612542565b6040516020818303038152906040525b9392505050565b6000808251604114156117a15760208301516040840151606085015160001a61179587828585611cee565b945094505050506117a9565b506000905060025b9250929050565b60008160048111156117d257634e487b7160e01b600052602160045260246000fd5b14156117db5750565b60018160048111156117fd57634e487b7160e01b600052602160045260246000fd5b141561184b5760405162461bcd60e51b815260206004820152601860248201527f45434453413a20696e76616c6964207369676e6174757265000000000000000060448201526064016107c9565b600281600481111561186d57634e487b7160e01b600052602160045260246000fd5b14156118bb5760405162461bcd60e51b815260206004820152601f60248201527f45434453413a20696e76616c6964207369676e6174757265206c656e6774680060448201526064016107c9565b60038160048111156118dd57634e487b7160e01b600052602160045260246000fd5b1415610ffc5760405162461bcd60e51b815260206004820152602260248201527f45434453413a20696e76616c6964207369676e6174757265202773272076616c604482015261756560f01b60648201526084016107c9565b6001811115610df9576001600160a01b0384161561197c576001600160a01b03841660009081526004602052604081208054839290611976908490612796565b90915550505b6001600160a01b03831615610df9576001600160a01b038316600090815260046020526040812080548392906119b390849061275f565b909155505050505050565b6119c88282610c91565b61093f576119d581611db2565b6119e0836020611dc4565b6040516020016119f1929190612571565b60408051601f198184030181529082905262461bcd60e51b82526107c991600401612623565b6000306001600160a01b037f000000000000000000000000000000000000000000000000000000000000000016148015611a7057507f000000000000000000000000000000000000000000000000000000000000000046145b15611a9a57507f000000000000000000000000000000000000000000000000000000000000000090565b50604080517f00000000000000000000000000000000000000000000000000000000000000006020808301919091527f0000000000000000000000000000000000000000000000000000000000000000828401527f000000000000000000000000000000000000000000000000000000000000000060608301524660808301523060a0808401919091528351808403909101815260c0909201909252805191012090565b60006001600160a01b0384163b15611c4057604051630a85bd0160e11b81526001600160a01b0385169063150b7a0290611b829033908990889088906004016125e6565b602060405180830381600087803b158015611b9c57600080fd5b505af1925050508015611bcc575060408051601f3d908101601f19168201909252611bc99181019061242d565b60015b611c26573d808015611bfa576040519150601f19603f3d011682016040523d82523d6000602084013e611bff565b606091505b508051611c1e5760405162461bcd60e51b81526004016107c990612683565b805181602001fd5b6001600160e01b031916630a85bd0160e11b14905061074c565b506001949350505050565b60606000611c5883611fa6565b600101905060008167ffffffffffffffff811115611c8657634e487b7160e01b600052604160045260246000fd5b6040519080825280601f01601f191660200182016040528015611cb0576020820181803683370190505b5090508181016020015b600019016f181899199a1a9b1b9c1cb0b131b232b360811b600a86061a8153600a8504945084611ce95761101b565b611cba565b6000807f7fffffffffffffffffffffffffffffff5d576e7357a4501ddfe92f46681b20a0831115611d255750600090506003611da9565b6040805160008082526020820180845289905260ff881692820192909252606081018690526080810185905260019060a0016020604051602081039080840390855afa158015611d79573d6000803e3d6000fd5b5050604051601f1901519150506001600160a01b038116611da257600060019250925050611da9565b9150600090505b94509492505050565b606061061e6001600160a01b03831660145b60606000611dd3836002612777565b611dde90600261275f565b67ffffffffffffffff811115611e0457634e487b7160e01b600052604160045260246000fd5b6040519080825280601f01601f191660200182016040528015611e2e576020820181803683370190505b509050600360fc1b81600081518110611e5757634e487b7160e01b600052603260045260246000fd5b60200101906001600160f81b031916908160001a905350600f60fb1b81600181518110611e9457634e487b7160e01b600052603260045260246000fd5b60200101906001600160f81b031916908160001a9053506000611eb8846002612777565b611ec390600161275f565b90505b6001811115611f57576f181899199a1a9b1b9c1cb0b131b232b360811b85600f1660108110611f0557634e487b7160e01b600052603260045260246000fd5b1a60f81b828281518110611f2957634e487b7160e01b600052603260045260246000fd5b60200101906001600160f81b031916908160001a90535060049490941c93611f50816127d9565b9050611ec6565b5083156117635760405162461bcd60e51b815260206004820181905260248201527f537472696e67733a20686578206c656e67746820696e73756666696369656e7460448201526064016107c9565b60008072184f03e93ff9f4daa797ed6e38ed64bf6a1f0160401b8310611fe55772184f03e93ff9f4daa797ed6e38ed64bf6a1f0160401b830492506040015b6d04ee2d6d415b85acef81000000008310612011576d04ee2d6d415b85acef8100000000830492506020015b662386f26fc10000831061202f57662386f26fc10000830492506010015b6305f5e1008310612047576305f5e100830492506008015b612710831061205b57612710830492506004015b6064831061206d576064830492506002015b600a831061061e5760010192915050565b82805461208a906127f0565b90600052602060002090601f0160209004810192826120ac57600085556120f2565b82601f106120c557805160ff19168380011785556120f2565b828001600101855582156120f2579182015b828111156120f25782518255916020019190600101906120d7565b506120fe929150612102565b5090565b5b808211156120fe5760008155600101612103565b80356001600160a01b038116811461212e57600080fd5b919050565b600082601f830112612143578081fd5b813567ffffffffffffffff8082111561215e5761215e61283b565b604051601f8301601f19908116603f011681019082821181831017156121865761218661283b565b8160405283815286602085880101111561219e578485fd5b8360208701602083013792830160200193909352509392505050565b6000608082840312156121cb578081fd5b50919050565b6000602082840312156121e2578081fd5b61176382612117565b600080604083850312156121fd578081fd5b61220683612117565b915061221460208401612117565b90509250929050565b600080600060608486031215612231578081fd5b61223a84612117565b925061224860208501612117565b9150604084013590509250925092565b6000806000806080858703121561226d578081fd5b61227685612117565b935061228460208601612117565b925060408501359150606085013567ffffffffffffffff8111156122a6578182fd5b6122b287828801612133565b91505092959194509250565b600080604083850312156122d0578182fd5b6122d983612117565b9150602083013580151581146122ed578182fd5b809150509250929050565b60008060006060848603121561230c578283fd5b61231584612117565b9250602084013567ffffffffffffffff80821115612331578384fd5b61233d878388016121ba565b93506040860135915080821115612352578283fd5b5061235f86828701612133565b9150509250925092565b6000806040838503121561237b578182fd5b61238483612117565b946020939093013593505050565b6000602082840312156123a3578081fd5b5035919050565b600080604083850312156123bc578182fd5b8235915061221460208401612117565b600080604083850312156123de578182fd5b82359150602083013567ffffffffffffffff8111156123fb578182fd5b61240785828601612133565b9150509250929050565b600060208284031215612422578081fd5b813561176381612851565b60006020828403121561243e578081fd5b815161176381612851565b60006020828403121561245a578081fd5b813567ffffffffffffffff811115612470578182fd5b61074c84828501612133565b60006020828403121561248d578081fd5b813567ffffffffffffffff8111156124a3578182fd5b61074c848285016121ba565b600080604083850312156124c1578182fd5b823567ffffffffffffffff808211156124d8578384fd5b6124e4868387016121ba565b935060208501359150808211156124f9578283fd5b5061240785828601612133565b6000815180845261251e8160208601602086016127ad565b601f01601f19169290920160200192915050565b8183823760009101908152919050565b600083516125548184602088016127ad565b8351908301906125688183602088016127ad565b01949350505050565b7f416363657373436f6e74726f6c3a206163636f756e74200000000000000000008152600083516125a98160178501602088016127ad565b7001034b99036b4b9b9b4b733903937b6329607d1b60179184019182015283516125da8160288401602088016127ad565b01602801949350505050565b6001600160a01b038581168252841660208201526040810183905260806060820181905260009061261990830184612506565b9695505050505050565b6020815260006117636020830184612506565b6020808252602d908201527f4552433732313a2063616c6c6572206973206e6f7420746f6b656e206f776e6560408201526c1c881bdc88185c1c1c9bdd9959609a1b606082015260800190565b60208082526032908201527f4552433732313a207472616e7366657220746f206e6f6e20455243373231526560408201527131b2b4bb32b91034b6b83632b6b2b73a32b960711b606082015260800190565b60208082526025908201527f4552433732313a207472616e736665722066726f6d20696e636f72726563742060408201526437bbb732b960d91b606082015260800190565b6000808335601e19843603018112612730578283fd5b83018035915067ffffffffffffffff82111561274a578283fd5b6020019150368190038213156117a957600080fd5b6000821982111561277257612772612825565b500190565b600081600019048311821515161561279157612791612825565b500290565b6000828210156127a8576127a8612825565b500390565b60005b838110156127c85781810151838201526020016127b0565b83811115610df95750506000910152565b6000816127e8576127e8612825565b506000190190565b600181811c9082168061280457607f821691505b602082108114156121cb57634e487b7160e01b600052602260045260246000fd5b634e487b7160e01b600052601160045260246000fd5b634e487b7160e01b600052604160045260246000fd5b6001600160e01b031981168114610ffc57600080fdfea2646970667358221220f3edbe15cfcb64042cc10dde8aa95d13a5def1614dc04bd3f43b76167b3f6b4d64736f6c63430008040033",
  "linkReferences": {},
  "deployedLinkReferences": {}
}