{
  "_format": "hh-sol-artifact-1",
  "contractName": "NftMarketplace",
  "sourceName": "contracts/NftMarketplace.sol",
  "abi": [
    {
      "anonymous": false,
      "inputs": [
        {
          "indexed": true,
          "internalType": "address",
          "name": "nftContractAddress",
          "type": "address"
        },
        {
          "indexed": true,
          "internalType": "uint256",
          "name": "tokenId",
          "type": "uint256"
        },
        {
          "indexed": true,
          "internalType": "address",
          "name": "seller",
          "type": "address"
        },
        {
          "indexed": false,
          "internalType": "uint256",
          "name": "price",
          "type": "uint256"
        }
      ],
      "name": "NFTBought",
      "type": "event"
    },
    {
      "anonymous": false,
      "inputs": [
        {
          "indexed": true,
          "internalType": "address",
          "name": "nftContractAddress",
          "type": "address"
        },
        {
          "indexed": true,
          "internalType": "uint256",
          "name": "tokenId",
          "type": "uint256"
        },
        {
          "indexed": true,
          "internalType": "address",
          "name": "seller",
          "type": "address"
        }
      ],
      "name": "NFTCancelled",
      "type": "event"
    },
    {
      "anonymous": false,
      "inputs": [
        {
          "indexed": true,
          "internalType": "address",
          "name": "nftContractAddress",
          "type": "address"
        },
        {
          "indexed": true,
          "internalType": "uint256",
          "name": "tokenId",
          "type": "uint256"
        },
        {
          "indexed": true,
          "internalType": "address",
          "name": "seller",
          "type": "address"
        },
        {
          "indexed": false,
          "internalType": "uint256",
          "name": "price",
          "type": "uint256"
        }
      ],
      "name": "NFTListed",
      "type": "event"
    },
    {
      "inputs": [
        {
          "internalType": "address",
          "name": "nftContractAddress",
          "type": "address"
        },
        {
          "internalType": "uint256",
          "name": "tokenId",
          "type": "uint256"
        }
      ],
      "name": "buyItem",
      "outputs": [],
      "stateMutability": "payable",
      "type": "function"
    },
    {
      "inputs": [
        {
          "internalType": "address",
          "name": "nftContractAddress",
          "type": "address"
        },
        {
          "internalType": "uint256",
          "name": "tokenId",
          "type": "uint256"
        }
      ],
      "name": "cancelListing",
      "outputs": [],
      "stateMutability": "nonpayable",
      "type": "function"
    },
    {
      "inputs": [
        {
          "internalType": "address",
          "name": "nftContractAddress",
          "type": "address"
        },
        {
          "internalType": "uint256",
          "name": "tokenId",
          "type": "uint256"
        },
        {
          "internalType": "uint256",
          "name": "price",
          "type": "uint256"
        }
      ],
      "name": "listItem",
      "outputs": [],
      "stateMutability": "nonpayable",
      "type": "function"
    },
    {
      "inputs": [
        {
          "internalType": "address",
          "name": "nftContractAddress",
          "type": "address"
        },
        {
          "internalType": "uint256",
          "name": "tokenId",
          "type": "uint256"
        },
        {
          "internalType": "uint256",
          "name": "newPrice",
          "type": "uint256"
        }
      ],
      "name": "updateListing",
      "outputs": [],
      "stateMutability": "nonpayable",
      "type": "function"
    }
  ],
  "bytecode": "0x608060405234801561001057600080fd5b506001600055610a66806100256000396000f3fe60806040526004361061003f5760003560e01c806389bfd38f146100445780639f37092a14610066578063b2ddee0614610079578063f772adf114610099575b600080fd5b34801561005057600080fd5b5061006461005f36600461095e565b6100b9565b005b610064610074366004610933565b61040a565b34801561008557600080fd5b50610064610094366004610933565b6105b0565b3480156100a557600080fd5b506100646100b436600461095e565b610736565b6001600160a01b03808416600090815260026020908152604080832086845282529182902082518084019093528054808452600190910154909316908201528491849133916101475760405162461bcd60e51b8152602060048201526015602482015274139195081a5cc8185b1c9958591e481b1a5cdd1959605a1b60448201526064015b60405180910390fd5b6040516331a9108f60e11b81526004810187905287908790339083906000906001600160a01b03831690636352211e9060240160206040518083038186803b15801561019257600080fd5b505afa1580156101a6573d6000803e3d6000fd5b505050506040513d601f19601f820116820180604052508101906101ca9190610910565b9050806001600160a01b0316836001600160a01b0316146101fd5760405162461bcd60e51b815260040161013e906109bd565b60008a1161024d5760405162461bcd60e51b815260206004820152601f60248201527f5072696365206d7573742062652067726561746572207468616e207a65726f00604482015260640161013e565b60405163020604bf60e21b8152600481018c90528c9030906001600160a01b0383169063081812fc9060240160206040518083038186803b15801561029157600080fd5b505afa1580156102a5573d6000803e3d6000fd5b505050506040513d601f19601f820116820180604052508101906102c99190610910565b6001600160a01b03161461031f5760405162461bcd60e51b815260206004820152601c60248201527f4e6f7420417070726f76656420466f72204d61726b6574706c61636500000000604482015260640161013e565b60405180604001604052808c8152602001336001600160a01b0316815250600260008f6001600160a01b03166001600160a01b0316815260200190815260200160002060008e81526020019081526020016000206000820151816000015560208201518160010160006101000a8154816001600160a01b0302191690836001600160a01b03160217905550905050336001600160a01b03168c8e6001600160a01b03167f392a0f172cb29479635d0b2219b2f96ef24f74dfdf328cb09f1496efe6cfddbe8e6040516103f391815260200190565b60405180910390a450505050505050505050505050565b6001600160a01b038083166000908152600260209081526040808320858452825291829020825180840190935280548084526001909101549093169082015283918391901561046b5760405162461bcd60e51b815260040161013e90610992565b6001600160a01b038516600090815260026020908152604080832087845290915290205485908590349081106104f15760405162461bcd60e51b815260206004820152602560248201527f496e73756666696369656e742062616c616e63652c207072696365206e6f74206044820152646d6574202160d81b606482015260840161013e565b6001600160a01b0380891660009081526002602090815260408083208b84528252808320815180830183528154815260019091015490941684830181905283526003909152812080543492906105489084906109f4565b9250508190555080602001516001600160a01b0316888a6001600160a01b03167fd049e2a63bc594b795843dbd138be07951c1fd96ef29b25ab85e74fc10f15085846000015160405161059d91815260200190565b60405180910390a4505050505050505050565b6040516331a9108f60e11b81526004810182905282908290339083906000906001600160a01b03831690636352211e9060240160206040518083038186803b1580156105fb57600080fd5b505afa15801561060f573d6000803e3d6000fd5b505050506040513d601f19601f820116820180604052508101906106339190610910565b9050806001600160a01b0316836001600160a01b0316146106665760405162461bcd60e51b815260040161013e906109bd565b6001600160a01b0380881660009081526002602090815260408083208a845282529182902082518084019093528054808452600190910154909316908201528891889190156106c75760405162461bcd60e51b815260040161013e90610992565b6001600160a01b038a1660008181526002602090815260408083208d845290915280822082815560010180546001600160a01b03191690555133928c9290917f09903d90802b3f2aa1934d28373004dc4cd89ebb976e615dc2570117cf0a5d8c9190a450505050505050505050565b6040516331a9108f60e11b81526004810183905283908390339083906000906001600160a01b03831690636352211e9060240160206040518083038186803b15801561078157600080fd5b505afa158015610795573d6000803e3d6000fd5b505050506040513d601f19601f820116820180604052508101906107b99190610910565b9050806001600160a01b0316836001600160a01b0316146107ec5760405162461bcd60e51b815260040161013e906109bd565b6001600160a01b0380891660009081526002602090815260408083208b8452825291829020825180840190935280548084526001909101549093169082015289918991901561084d5760405162461bcd60e51b815260040161013e90610992565b6108556108b6565b6001600160a01b03808c1660009081526002602090815260408083208e84528252918290208251808401909352805483526001015490921691810191909152891561089e578981525b506108a96001600055565b5050505050505050505050565b600260005414156109095760405162461bcd60e51b815260206004820152601f60248201527f5265656e7472616e637947756172643a207265656e7472616e742063616c6c00604482015260640161013e565b6002600055565b600060208284031215610921578081fd5b815161092c81610a18565b9392505050565b60008060408385031215610945578081fd5b823561095081610a18565b946020939093013593505050565b600080600060608486031215610972578081fd5b833561097d81610a18565b95602085013595506040909401359392505050565b602080825260119082015270139195081a5cc81b9bdd081b1a5cdd1959607a1b604082015260600190565b60208082526018908201527f5370656e646572206973206e6f7420746865206f776e65720000000000000000604082015260600190565b60008219821115610a1357634e487b7160e01b81526011600452602481fd5b500190565b6001600160a01b0381168114610a2d57600080fd5b5056fea264697066735822122044c511523fa7f4b63542bded416159e8359f4578a41dca224e4d3a4d967d8e6864736f6c63430008040033",
  "linkReferences": {},
  "deployedLinkReferences": {}
}